:100000000C9434000C9446000C9446000C9446006A
:100010000C9446000C9446000C9446000C94460048
:100020000C9446000C9446000C9446000C94460038
:100030000C9446000C9446000C9446000C94460028
:100040000C9446000C9446000C9446000C94460018
:100050000C9446000C9446000C9446000C94460008
:100060000C9446000C94460011241FBECFEFD8E03C
:10007000DEBFCDBF11E0A0E0B1E001C01D92AD3008
:10008000B107E1F70E945E000C94A8000C940000F8
:1000900087E690E09093C5008093C40088E1809348
:1000A000C10086E08093C2000895982FE0ECF0E054
:1000B000808185FFFDCF9093C6000895EF92FF9257
:1000C0000F931F93CF93DF930E94480020E030E00E
:1000D000A0ECB0E0C6ECD0E043E051E08C91882386
:1000E000ECF78881FA01E20FF31F808388818D305D
:1000F00091F48093000183E091E0FC01E20FF31F93
:1001000010828C010F2EF0E1EF2EF7E2FF2EF02D82
:10011000C9E1D0E003C02F5F3F4FE0CFF8018081FD
:10012000809301010E9455009701CE010197F1F7DC
:1001300021503040D1F7F80181810F5F1F4F882394
:1001400069F7DF91CF911F910F91FF90EF90089584
:04015000F894FFCF51
:00000001FF
